:100000000C9489020C94D0020C94D0020C94D0026F
:100010000C94D0020C94D0020C94D0020C94D00218
:100020000C94D0020C94D0020C9443270C94162804
:100030000C94C71D0C94D0020C94D0020C94D002E6
:100040000C94D0020C94D0020C94D0020C94D002E8
:100050000C94D0020C942F1E0C94D0020C94D0025D
:100060000C94D0020C94FC030C94D0020C94D0029B
:100070000C94D0020C94D0020C94D0020C94D002B8
:100080000C94D0020C94D0020C94D0020C94D002A8
:100090000C94D0020C94D0020C94D0020C94D00298
:1000A0000C94D0020C94D0020C94D0020763423618
:1000B000B79BD8A71A39685618AEBAAB558C1D3CF9
:1000C000B7CC5763BD6DEDFD753EF6177231BF00BD
:1000D0000000803F05A84CCDB2D44EB93836A902F5
:1000E0000C50B9918688083CA6AAAA2ABE00000036
:1000F000803F290014001A000800150017001C009A
:1001000018000C00120013002A002B4304001600F4
:10011000070009000A000B000D000E000F0033005D
:100120002872E1001D001B000600190005001100E7
:10013000100036003700520028726500E000E2002F
:10014000E30002512C002C000151380050005100F6
:100150004F0035001E001F00200021002200230058
:1001600024002500260027004C00010001000100AA
:1001700001000100010032002D002E002F00300090
:100180006400010044004500680069006A006B00DB
:100190006C006D006E00A900A800010001000100C4
:1001A0003900010001000100010001000100AA0066
:1001B000AE0035021E021F0220022102220223028B
:1001C00024022502260227024C0001000100010042
:1001D00001000100010001002D022E022F02300259
:1001E000310201003A003B003C003D003E003F0070
:1001F0004000410042004300A8000100010001004E
:10020000390001000100010001000100BC00BB0039
:10021000AE002900010001000100005C01000100A6
:10022000010001000100460001000100040001007E
:1002300001000100010001000100010001000100B6
:1002400001000100F05CF15CC25C010001000100F2
:1002500001000100F400F000F500010001000100C0
:10026000010001000100010001000100F200F100A5
:10027000F30000047F3F1F643214643214783C1E84
:100280001E140A056801F000B40078005A0000004E
:10029000000000010101010101010101020202024D
:1002A0000202020202030303030303030304040420
:1002B00004040405050505050606060606070707E6
:1002C00007080808080909090A0A0A0A0B0B0B0C97
:1002D0000C0C0D0D0D0E0E0F0F0F10101111111231
:1002E0001213131414151516161717181819191AAE
:1002F0001A1B1C1C1D1D1E1F1F202021222223240F
:10030000252526272728292A2B2B2C2D2E2F2F3049
:10031000313233343536363738393A3B3C3D3E3F5F
:100320004041424344464748494A4B4C4D4F505147
:100330005253555657585A5B5C5E5F606263646601
:1003400067696A6C6D6E707173747678797B7C7E88
:100350008081838486888A8B8D8F91929496989AD7
:100360009B9D9FA1A3A5A7A9ABADAFB1B3B5B7B9ED
:10037000BBBDBFC1C4C6C8CACCCFD1D3D6D8DADCC6
:10038000DFE1E4E6E8EBEDF0F2F5F7FAFCFF040359
:10039000300000000A0375007400340037000000CC
:1003A0001E033400300070006500720063006500B9
:1003B0006E0074002E0063006C0075006200000087
:1003C0000403090409023B00020100A0FA09040029
:1003D0000001030101000921110100012240000771
:1003E00005810308000A0904010001030000000957
:1003F000211101000122C0000705820320000A121A
:1004000001100100000008EDFE00000100010203E0
:100410000105010902A10185020901A100050919CF
:1004200001290515002501950575018102950175C4
:100430000381010501093009311581257F95027578
:1004400008810609381581257F9501750881060503
:100450000C0A38021581257F950175088106C0C0F8
:1004600005010980A10185031601002603001A81F8
:10047000002A8300751095018100C0050C0901A1B7
:10048000018504160100269C021A01002A9C0275AF
:100490001095018100C005010906A1018505050728
:1004A00019E029E715002501950875018102050865
:1004B00019012905950575019102950175039101B1
:1004C0000507190029EF1500250195F07501810236
:1004D000C005010906A101050719E029E715002556
:1004E00001950875018102950175088101050819BA
:1004F0000129059505750191029501750391010585
:1005000007190029FF150026FF00950675088100D0
:10051000C00011241FBECFEFDAE0DEBFCDBF04B6AE
:1005200003FE27C080915B0390915C03A0915D0363
:10053000B0915E038730904BA740B04BD1F410923E
:100540005B0310925C0310925D0310925E0314BE75
:1005500084B7877F84BF0FB6F894A8958091600018
:10056000886180936000109260000FBEE0E0F8E3C5
:10057000099511E0A0E0B1E0E0E3FBE502C00590E1
:100580000D92AC32B107D9F723E0ACE2B1E001C083
:100590001D92AB35B207E1F70E9470240C94962DA2
:1005A0000C9400008AB18C7E8AB98BB18C7E8BB999
:1005B0003E98469808950E94D20280B38F7080BB07
:1005C00081B3806F81BB6E98769A57985F9A84B199
:1005D000817884B985B18E6785B9A4E3B1E01196BD
:1005E0001C921E92ECE2F1E01182108213961C9292
:1005F0001E9212971382128215961C921E921497C5
:100600001582148217961C921E92169717821682D4
:100610000C94E8030F931F93CF93DF93CCE2D1E0C8
:1006200010E005E0123009F49BC0133009F49BC0C0
:10063000113009F492C0519A599880EA8A95F1F7DD
:1006400029B1022E000C330B20953095832F881F83
:100650008827881F90E0669989C022E030E0822BCD
:10066000932B1C9986C024E030E0822B932B1D999C
:1006700083C028E030E0822B932B1E9980C020E1BC
:1006800030E0822B932B1A997DC020E230E0822B40
:10069000932B1B997AC020E430E0822B932B19997D
:1006A00077C020E830E0822B932B7F9974C020E044
:1006B00031E0822B932B7E9971C020E032E0822BB7
:1006C000932B7D996EC020E034E0822B932B7C9994
:1006D0006BC020E038E0822B932B299139912817A9
:1006E000390731F0FE013297918380830093000136
:1006F0000E94D2021F5F143009F094CF8091000154
:10070000882329F1815080930001811150C080918C
:100710002C0190912D0190933501809334018091AB
:100720002E0190912F019093370180933601809193
:10073000300190913101909339018093380180917B
:1007400032019091330190933B0180933A0181E013
:10075000DF91CF911F910F910895509A58986DCFC6
:10076000549A5C986ACF3E9A469867CF30E020E072
:1007700076CF30E020E079CF30E020E07CCF30E071
:1007800020E07FCF30E020E082CF30E020E085CF56
:1007900030E020E088CF30E020E08BCF30E020E078
:1007A0008ECF30E020E091CF30E020E094CF8FE991
:1007B0009FE00197F1F700C00000C9CFE82FF0E0FB
:1007C000EE0FFF1FEC5CFE4F80819181089508952C
:1007D00087E68093CC001092CD0088E08093C9001A
:1007E00086E08093CA00789408959091C80095FFA0
:1007F000FCCF8093CE0008951F920F920FB60F92F8
:1008000011248F939F93EF93FF9380913D01E82FE5
:10081000F0E08F5F90913C01981739F09091CE00F5
:10082000E25CFE4F908380933D01FF91EF919F9199
:100830008F910F900FBE0F901F90189581FF05C0EC
:10084000209A2898559A5D98089520982898559848
:10085000FACF0F931F93CF93DF938C01EB018A8123
:10086000882339F089818295807F9881890F0E9441
:10087000F503BE01C801DF91CF911F910F910C9438
:10088000470485E60C94F50384E60C94F5039C017B
:10089000FB018281882379F0203FFCE53F0721F0AE
:1008A000213F3C4529F008950E94440480E00895CA
:1008B0000E944104FBCF81E0089581E008950895EE
:1008C0000E94D8150E945F042FEF84E39CE0215022
:1008D00080409040E1F700C0000087E797E79093E1
:1008E0000108809300080C94551EFF920F931F93EC
:1008F000CF93DF938C01FC01C081D1818091740280
:10090000811149C08281882309F440C0CE010E9430
:10091000231BF82E682FCE010E94C91ABE018F2D0D
:100920000E941707EC01B8010E942904882309F4EA
:10093000D7C0CC3CFCE5DF0709F423C108F071C047
:10094000C43C9CE5D90709F4F5C008F048C0C5319E
:10095000FCE5DF0728F5C2308CE5D80708F06EC14A
:10096000C1159CE5D90709F4B6C0C130DC4509F4CE
:10097000BEC081E08093430280934402C801DF91AE
:10098000CF911F910F91FF900C945D04CE010E94B6
:10099000F81AF82EC3CFCE010E94231BBE01C0CF90
:1009A000C23CFCE5DF0709F4B3C008F0B8C0C631AB
:1009B000DC45F9F60E94B81BF8019281992309F4ED
:1009C00028C28A7A91E009F490E090933E02811166
:1009D0001EC289E20E94931B0E94071C81C0F8017D
:1009E0008281C83CFCE5DF0709F4B9C068F4C63C65
:1009F000ECE5DE0709F4AEC008F4A7C0882309F4CB
:100A00006FC00E94EF0B6CC0CA3C9CE5D90709F48B
:100A1000B2C008F4AAC0882309F462C00E946A0A1E
:100A20005FC0C43DFCE5DF0709F4F1C040F5F80103
:100A30008281C03DFCE5DF0709F4BFC0A8F4CE3CCD
:100A4000ECE5DE0709F4ACC008F4A3C0882309F480
:100A500047C00E94610A863028F00E94610A8830EF
:100A600008F470C086E099C0C23D9CE5D90709F43E
:100A7000C0C008F4B0C0882399F188E18EC0C93D98
:100A8000FCE5DF0709F4A8C188F4C73D9CE5D90758
:100A900009F458C108F07DC1C53DDC4509F069CFB6
:100AA000F80182818823E1F083E277C0CD3D8CE5B7
:100AB000D80709F4BCC0CE3D9CE5D90711F1CC3D67
:100AC000DC4509F056CFF8018281882349F080E0A7
:100AD0000E940B2505C0F801828181110E946004EB
:100AE00080E0DF91CF911F910F91FF900895F80161
:100AF00082818823A9F38091F80281608093F802B3
:100B0000EFCFF8018281882359F30E94E41CE8CFDB
:100B1000F8018281882321F30E94110DE1CFF801B1
:100B200082818823E9F20E94B81B827259F00E94E8
:100B3000AD0CD6CFF8018281882391F20E94B81BB8
:100B40008272A9F30E949F0CCBCF882349F20E94A6
:100B5000AF0BC6CF882321F20E94D20BC1CF8823CE
:100B600009F4BECF0E940C0CBBCF882309F4B8CF88
:100B70000E94290CB5CF882309F4B2CF0E94460CFD
:100B8000AFCFF8018281882309F4AACF0E947F0A9F
:100B9000A7CF882309F4A4CF81E00E94B00CA0CF96
:100BA000882309F49DCF0E94610A823020F00E94C0
:100BB000610A853038F282E0F0CF882309F490CFC3
:100BC0000E94610A893028F00E94610A8E3008F480
:100BD000B9CF89E0E2CF882309F482CF0E94610A6D
:100BE0008F3028F00E94610A843108F4ABCF8FE087
:100BF000D4CF882309F474CF0E94610A853128F08C
:100C00000E94610A873108F49DCF85E1C6CFF801C3
:100C10008281882309F464CF0E94610A893128F017
:100C20000E94610A823208F48DCF89E1B6CFF801C3
:100C30008281882309F454CF82E04ACFF80182816F
:100C4000882309F49BCE0E946A1C811102C00E9475
:100C5000E41C0E947D1C90E090934D0380934C0314
:100C6000FE01E350FC4580914C038160E231F105C7
:100C7000C8F4E35CF94F0C943B2D4F065B065F060E
:100C8000630667066B066F06730677067B067F06AC
:100C9000830687068B068F06930697069B06809130
:100CA0004C03826080934C0380914C030E94811C12
:100CB0000E94D81515CF80914C038460F3CF8091AA
:100CC0004C038860EFCF80914C038061EBCF809123
:100CD0004C038062E7CF80914C038064E3CF809126
:100CE0004C038068DFCF80914C038460EACF809111
:100CF0004C038E7FD7CF80914C038D7FD3CF8091D3
:100D00004C038B7FCFCF80914C03877FCBCF8091DB
:100D10004C038F7EC7CF80914C038F7DC3CF8091D2
:100D20004C038F7BBFCF80914C038F77BBCF8091DB
:100D30004C038B7FEACF90914C03892F97FB87F967
:100D40008058B0CFF8018281882361F0109243026D
:100D50000E94F91D9093400280933F0282E00E941E
:100D6000FC12BECE8091430281110FC080913F02E0
:100D7000909140020E94051E883C910530F486E265
:100D80000E94B91186E20E94A61282E00E9403131B
:100D9000A7CEF8018281882351F0109244020E946C
:100DA000F91D909342028093410280E2D8CF809156
:100DB000440281110FC080914102909142020E9431
:100DC000051E883C910530F487E20E94B91187E244
:100DD0000E94A61280E2DACFF80182818111DDCF74
:100DE000809144028111F6CF80914102909142029C
:100DF0000E94051E883C910568F780E20E9403135B
:100E000088E20E94B91188E20E94A61269CE85E3A9
:100E1000E1CD80913E02811104C089E20E949A1BBB
:100E2000DBCD85E3FBCF90E080E008950895972F18
:100E300070E02CE0929F600D711D1124FB0190E386
:100E4000899FE00DF11D1124EE0FFF1FEE50FF4FA3
:100E5000859194910895FC01EE0FFF1FEE58FD4F10
:100E6000859194910895CF93DF930E9417070E9474
:100E7000EF08EC018115904508F043C0C11580E4EE
:100E8000D80708F017C1C83ED10528F5C03ED105E6
:100E900008F0A3C0C83AD10580F4C53AD10508F0DE
:100EA00092C0C130D10509F498C020F0C430D105FA
:100EB00008F093C0D0E0C0E090C0CF3BD10508F46B
:100EC00090C0CE01805C9109C03CD10598F30E948E
:100ED0002B07EC0182C0C11520E2D20750F4C115E6
:100EE00081E0D80708F079C0C03FD10518F3D0657C
:100EF00074C0C11520E3D20708F0D2C0CE019F70A4
:100F0000E6CFC11585E5D80760F5C11524E5D20700
:100F100008F0FEC0C11582E5D80750F4C11521E5DF
:100F2000D20708F4CAC0DC2FCC27C16FD06A55C0E5
:100F30009C2F969596959E0123703327C115D34516
:100F400008F0D7C0C1E0D0E002C0CC0FDD1F2A9569
:100F5000E2F720E2929FC0011124C82BD92BDC6854
:100F60003CC0C11529E5D207A8F4C11588E5D8070A
:100F700008F0D3C0C11526E5D20708F09BCF8C2F0F
:100F80000E946F09C82FD0E0DC2FCC27CC27DF715F
:100F9000D06223C0C1158AE5D80708F4C3C0CE01CA
:100FA00090568115904208F085CF8D2F8F710E9449
:100FB0006F09DD27D06290E0982F882788279F71DE
:100FC000C82BD92B0AC0C53AD10509F4BDC0C63A11
:100FD000D10509F4BCC0C3E8D0E4CE01DF91CF91C4
:100FE0000895C83AD10509F4B5C0C93AD10509F444
:100FF000B4C0CA3AD10509F4B3C0CB3AD10509F45B
:10100000B2C0CC3AD10509F4B1C0CB3BD10509F44B
:10101000B0C0CC3BD10509F4AFC0CD3AD10509F43D
:10102000AEC0C03BD10509F4ADC0CE3AD10509F43C
:10103000ACC0CF3AD10509F4ABC0C13BD10509F42E
:10104000AAC0C23BD10509F4A9C0C33BD10509F42C
:10105000A8C0C43BD10509F4A7C0C53BD10509F41C
:10106000A6C0C63BD10509F4A5C0C73BD10509F40C
:10107000A4C0C83BD10509F4A3C0C93BD10509F4FC
:10108000A2C0CD3BD10509F4A1C0CE3BD10509F4E6
:10109000A0C0CA3BD10509F09FC0CAE2D6E49DCFEB
:1010A000CE019927D3FF03C0EC01D86C96CFEC0199
:1010B000D06C93CFDF70D06A90CFCE01F4E09695DC
:1010C0008795FA95E1F783709C2F937021E030E0CB
:1010D00002C0220F331F9A95E2F73C68382BC69561
:1010E000C695C37080E2C89FE0011124C22BD32BA8
:1010F00074CFC1E0D0E002C0CC0FDD1F2A95E2F72B
:1011000020E2929FC0011124C82BD92BDA6865CF49
:10111000DC2FCC27C46FD06A60CFDC2FCC27C06F08
:10112000D06A5BCF8C2F8F700E946F0934E0D69508
:10113000C7953A95E1F7CF70D0E0DC2FCC27D06A85
:101140008F70806EC82B49CFC1E8D0E446CFC2E88B
:10115000D0E443CFC2EED4E440CFC9EED4E43DCFD7
:10116000CAEED4E43ACFC5EBD4E437CFC6EBD4E42F
:1011700034CFC3EBD4E431CFC4EBD4E42ECFC7EBF0
:10118000D4E42BCFCCECD4E428CFCDECD4E425CFE1
:10119000C3E8D5E422CFCAE8D5E41FCFC2E9D5E43D
:1011A0001CCFC4E9D5E419CFC1E2D6E416CFC3E21F
:1011B000D6E413CFC4E2D6E410CFC5E2D6E40DCF17
:1011C000C6E2D6E40ACFC7E2D6E407CFCFE6D4E43E
:1011D00004CFC0E7D4E401CFC0E0D4E4FECE82382F
:1011E000910549F1B0F48133910509F45CC048F4EC
:1011F0008932910509F452C08A32910509F458C028
:1012000008958533910509F444C08933910599F017
:101210000895833E910531F138F4803E910591F0B7
:10122000823E9105B1F00895863E910511F1873E09
:10123000910541F1089520914C032370C9F080EE8F
:1012400090E0089520914C0320FF12C089E390E0C4
:10125000089520914C0322FF0BC024FF2EC090E084
:1012600080E0089520914C0322FD2AC024FDF7CF91
:10127000089520914C0323FFFBCF24FDF0CF87EE90
:1012800090E0089520914C0323FFF0CF86EE90E08C
:10129000089520914C0325FD16C0089520914C031C
:1012A00025FD14C0089520914C0326FD12C0089519
:1012B00020914C0326FD10C0089583EE90E0089520
:1012C00082EE90E0089589E290E0089585E390E051
:1012D00008958AE290E0089581E390E0C9CF90916B
:1012E0004C0392FF06C0282F2871283069F4877FAD
:1012F000846093FF06C0282F2871283161F4877E0F
:10130000846194FD877E0895282F2471243089F705
:101310008B7F8860EECF282F2471243191F78B7E4C
:101320008861EFCFCF92DF92EF92FF920F931F93DE
:10133000CF93DF93E901662309F466C0E42EF12C14
:10134000EFEFF0E0E61BF109EE9D8001EF9D100D3F
:10135000FE9D100D1124212FE12FFF27EE1AFF0A09
:101360005CE3C52ED12CB6010E94132DFB01BC01FC
:10137000E69EC001E79E900DF69E900D1124B601E9
:101380000E94132DE230F10589F168F4812F262F98
:10139000210F309781F0242F461B319761F080E0B8
:1013A00020E040E008C0E430F10551F128F1842F3D
:1013B000861B3597A1F7E42FF0E0E257FD4F4491EB
:1013C000E22FF0E0E257FD4F9491E82FF0E0E25772
:1013D000FD4FE49149839883EA83DF91CF911F9178
:1013E0000F91FF90EF90DF90CF900895862F810F9F
:1013F000E42F412F2E2FDFCFE42FE61B842FF9CFD0
:10140000842F462F410FD7CF842F242FD4CF809104
:101410002903982F9E7739F581788260809329037C
:1014200030912903432F441F4427441F20912A034E
:10143000522F550F852F842B27FB992790F989363A
:1014400041E0940778F068E671E00E94272D80FB68
:1014500037F93093290386952078282B90FB27F9BC
:1014600020932A030895982F96959F739532C0F282
:1014700081788864D3CF88E090E00C94562DCF9289
:10148000DF92EF92FF926B017C010E94070AB70185
:10149000A60188E090E0FF90EF90DF90CF900C9451
:1014A000742DE9E2F3E083E0808310922A038FEF4A
:1014B00082838383148260817181828193810C9401
:1014C0003F0A8091290380FF03C086958F7308959A
:1014D00080E0089580912D0390E00196843091057D
:1014E00014F083E090E080932D03609129037091C4
:1014F0002A0380912B0390912C030C943F0A809136
:101500002D038150990B97FF02C090E080E084305A
:10151000910514F083E090E080932D0360912903FE
:1015200070912A0380912B0390912C030C943F0A15
:101530008091620223E0829FC0011124825D9C4F52
:101540006091030170E020912903EEE2F3E020FDB9
:101550000C944310118210821282339623E0E634F9
:10156000F207C1F7F5CF9091290390FF0CC0EEE28E
:10157000F3E0818360834283339693E0E634F90796
:10158000C1F70C94980A0895CF93DF9300D01F926F
:10159000CDB7DEB72091290320FF0AC09E012F5F3F
:1015A0003F4F0E9492094B8169818A810E94B30A50
:1015B0000F900F900F90DF91CF9108955F926F92EF
:1015C0007F928F929F92AF92BF92CF92DF92EF92D3
:1015D000FF920F931F93CF93DF9300D01F92CDB74D
:1015E000DEB78C01E62EF42E522E8091290380FF67
:1015F0002FC0982F9E779230F1F59E012F5F3F4FBD
:10160000C8010E9492094B8169818A810E94B30AB4
:101610008091290300FB87F980932903902F9695E9
:1016200080912A038078892B10FB87F980932A0305
:10163000E0922B03F0922C03552051F06091290386
:1016400070912A0380912B0390912C030E943F0AF2
:101650000F900F900F90DF91CF911F910F91FF90FE
:10166000EF90DF90CF90BF90AF909F908F907F9042
:101670006F905F900895E82FE695EF739EE39E0FBD
:101680009F73943018F4F0902C03C2CF9AE39E0F0E
:101690009F73993068F4881F8827881F90912A03C8
:1016A000292F220F022F082B97FB112710F9B0CFFB
:1016B00087E28E0F8F738A3008F0AACFE951FF0BB3
:1016C0002FEFE0FF21E0EE7FEC57FD4F85919491E5
:1016D00033E0969587953A95E1F7AC0124034001F4
:1016E000259F900C1124580158E9A51A5EEFB50A00
:1016F0004EE2C42E43E0D42E58E6652E7724739430
:10170000C501B3010E94132D96014F2D6E2D0E942D
:101710009209A80CB91C83E0C80ED11C46E4C4167B
:1017200043E0D40669F70E94980A72CF282FE9E2B5
:10173000F3E03081331F3327331F40912A03542FA6
:10174000550F852F832B47FB992790F90A9668E65A
:1017500071E00E94272D438162810C94DE0A81E0B2
:101760000C94960B282F30912903331F3327331FF6
:1017700040912A03542F550F852F832B47FB992720
:1017800090F98A30910540F4825A9E4F40912C0383
:1017900060912B030C94DE0A0A9768E671E00E94C0
:1017A000272DF4CF81E00C94B20B60912B036F3E98
:1017B000A0F46F5E30912903331F3327331F9091BC
:1017C0002A03592F550F97FB992790F9282F4091FD
:1017D0002C03852F832B0C94DE0A6FEFEBCF81E077
:1017E0000C94D50B60912B036131A0F061513091C5
:1017F0002903331F3327331F90912A03592F550F85
:1018000097FB992790F9282F40912C03852F832B44
:101810000C94DE0A60E0EBCF81E00C94F20B409177
:101820002C034F3EA0F44F5E30912903331F332722
:10183000331F90912A03592F550F97FB992790F941
:10184000282F60912B03852F832B0C94DE0A4FEFFA
:10185000EBCF81E00C940F0C40912C034131A0F0B0
:10186000415130912903331F3327331F90912A03AD
:10187000592F550F97FB992790F9282F60912B032B
:10188000852F832B0C94DE0A40E0EBCF81E00C9493
:101890002C0C20E00C94DE0ACF939091290390FF4A
:1018A00040C09178811131C09260909329036623E2
:1018B00051F06091290370912A0380912B0390913C
:1018C0002C030E943F0AC09129036C2F66956F7309
:1018D00070E04BE050E084E091E00E94412D892BC4
:1018E000E1F010926302CC1FCC27CC1F90912A0309
:1018F000892F880F97FB992790F940912C036091CD
:101900002B038C2BCF910C94490C853210F09864EA
:10191000CCCF8F73880F982BC8CF81E08093630260
:10192000E2CFCF910895682F9091290396959F73E8
:1019300081E0890F853208F081E00C944C0C81E045
:101940000C94930C682F9091290396959F738FEFB9
:10195000890F09F484E20C944C0C81E00C94A20CE5
:1019600061E00C944C0CE9E2F3E0808181608083BB
:1019700086958F730C94B00C60E00C944C0C8091A5
:101980006402811135C08091F80281608093F80271
:101990000E946A1C811104C00E94E41C0E94510A2A
:1019A0000E943B0A6093290370932A0380932B03C0
:1019B00090932C036E7761F40E94510A0E943B0AB7
:1019C0006093290370932A0380932B0390932C0335
:1019D0000E94070A81E0809363028091290380FFBF
:1019E00004C086958F730E94BC0C81E080936402D2
:1019F0000895E9E2F3E080818E7F808360817181C8
:101A0000828193810E943F0A109263022FEF80E748
:101A100092E0215080409040E1F700C000000C941B
:101A2000980A8091290380FD0C94F90C0C94B30C56
:101A3000CF93E82FF0E0E058FD4FC4918091600211
:101A4000909161020E94051EC817190611F008F056
:101A500042C00E94F91D90936102809360026091E0
:101A60005F0270E090E080E00E94142B20E030E004
:101A70004FE753E40E94372A2BED3FE049E450E45E
:101A80000E943D2C0E94AA2C0E94B12A2BE43AE32A
:101A90004EE25FE30E94CA2920EF3BEF48ED52E49B
:101AA0000E943D2C0E94E32A462F80912903881F23
:101AB0008827881F90912A03292F220F97FB9927A7
:101AC00090F960912B03822B0E94C40A80915F02DF
:101AD0008F5F80935F02CF910895CF93E82FF0E05E
:101AE000E358FD4FC49180915D0290915E020E9487
:101AF000051EC817190609F0E8F40E94F91D909315
:101B00005E0280935D0240912C0360912B038091D3
:101B10005B0290915C020E94C40A80915B029091EA
:101B20005C02019668E671E00E94132D90935C02BE
:101B300080935B02CF910895CF92DF92FF920F9333
:101B40001F93CF93DF93F82EE82FE695F0E0E65849
:101B5000FD4FC4918091590290915A020E94051E36
:101B6000C817190609F0A8F50E94F91D90935A02AA
:101B7000809359020EE213E0D0E0C0E088E6C82E60
:101B8000DD24D39480915702909158028C0F9D1FB1
:101B9000B6010E94132D980140912C0360912B03F4
:101BA0000E949209AD960D5F1F4FC83681E0D8079D
:101BB00049F70E94980A8091570290915802F0FECE
:101BC00010C00196BE010E94132D9093580280937D
:101BD0005702DF91CF911F910F91FF90DF90CF902F
:101BE00008950197F2CFCF92DF92EF92FF920F9379
:101BF0001F93CF93DF93FF24FA9480FD02C0FF244C
:101C0000F3948695E82FF0E0E958FD4FC491809158
:101C10005502909156020E94051EC817190611F030
:101C200008F050C00E94F91D90935602809355020F
:101C3000CEE2D3E010E000E0198218821A8294E02C
:101C4000C92ED12CE12C809154028E0D87FD885F26
:101C5000082E000C990B08171907E9F480912C0342
:101C60008C9DA0018D9D500D11245595479555953E
:101C7000479580912903881F8827881F90912A0300
:101C8000592F550F97FB992790F99E0160912B03CF
:101C9000852B0E949209EF0C81E0C81AD10899F6B1
:101CA0000F5F1F4F23960830110531F60E94980AE6
:101CB0008091540291E0F91210C081110CC087E0AC
:101CC00080935402DF91CF911F910F91FF90EF907D
:101CD000DF90CF9008958150F3CF90E00196877008
:101CE0009927EECF0F931F93CF93DF93E82FF0E068
:101CF000EC58FD4FC49180915202909153020E9482
:101D0000051EC817190611F008F052C00E94F91DEF
:101D10009093530280935202CEE2D3E0FE011182EF
:101D200010821282339683E0E634F807C1F710E0A0
:101D300000E080915102082E000C990B081719073A
:101D4000E4F180910201082E000C990B8017910795
:101D5000A4F180912903881F8827881F90912A0366
:101D6000592F550F97FB992790F99E0140912C030D
:101D700060912B03852B0E9492090F5F1F4F2396C2
:101D800008301105B1F60E94980A809101019091E6
:101D90005102980F9093510220910201280F209335
:101DA0000201121614F497301CF081958093010102
:101DB000DF91CF911F910F910895198218821A8295
:101DC000DCCFEF92FF920F931F93CF93DF9380911D
:101DD0004F02909150020E94051E883E9340C8F128
:101DE0000E94F91D9093500280934F02C0914D02C2
:101DF000D0914E022196C170DD27D0934E02C09340
:101E00004D028EE2E82E83E0F82E10E008E7812FE5
:101E100086958C0F9D2F911D817099279701409178
:101E20002C0360912B03FC010E9FC0010F9F900DAE
:101E300011240E9492091F5FF3E0EF0EF11C18308D
:101E400031F7DF91CF911F910F91FF90EF900C949C
:101E5000980ADF91CF911F910F91FF90EF90089515
:101E6000CF93DF9300D01F92CDB7DEB780914B02A6
:101E700090914C020E94051EE2E7F2E02591349118
:101E800082179307B8F180914A0281110CC09E011C
:101E90002F5F3F4F4FEF6FEF90E080E00E9492097D
:101EA0008A8180934A020E94F91D90934C0280938C
:101EB0004B0280914902813069F038F040914A022A
:101EC000823009F040E080E003C080914A0240E0A7
:101ED00060E004C060914A0240E080E00E94B30AE2
:101EE0008091490290E0019663E070E00E94272D06
:101EF000809349020F900F900F90DF91CF9108953A
:101F00000F931F93CF93DF938091470290914802E4
:101F10000E94051E843F9140D8F10E94F91D9093C4
:101F2000480280934702CEE2D3E010E000E0409107
:101F300045025091460260912B0380912903282F7E
:101F4000221F2227221F90912A03892F880F822B7C
:101F500097FB992790F904301105FCF4452BF9F013
:101F60009E0140912C030E9492090F5F1F4F239600
:101F700008301105E1F60E94980A8091450290917F
:101F800046020196817099279093460280934502FC
:101F9000DF91CF911F910F910895452B09F39E0179
:101FA00040E0E1CF809163028823D1F19091290331
:101FB000892F86958F732EE3280F2F73243018F402
:101FC00082500C94180D2AE3280F2F73233018F435
:101FD00086500C946D0D27E3280F2F73263018F4CC
:101FE00089500C949C0D21E3280F2F73263018F490
:101FF0008F500C94F30D2BE2280F2F73233018F41D
:1020000085510C94720E9E77903311F40C94E10E6E
:10201000963411F40C94300F983411F40C94800F12
:1020200008953BB1242F209523233BB1432B3FB789
:10203000F894FC01680F791FE617F70711F43FBF0A
:102040000895819198E04BB9000000C087FF2BB93B
:10205000880F000000C000C000C02BB900C09A95D6
:1020600091F7EACF2AB1242B2AB99B01220F331F03
:10207000620F731F0E94111087EC90E00197F1F737
:1020800000C00000089548E00C94321090936A025A
:10209000809369020895E0916902F0916A02309795
:1020A00021F00190F081E02D099480E00895E09105
:1020B0006902F0916A02309799F020912101222360
:1020C00059F020914C0327FF07C0DC012C91119699
:1020D0002C93119725E02C930280F381E02D099435
:1020E0000895E0916902F0916A02309739F022E098
:1020F000DC012C930480F581E02D09940895209152
:102100006702309168022817390771F090936802CE
:1021100080936702E0916902F0916A02309721F0A2
:102120000680F781E02D0994089520916502309191
:1021300066022817390771F0909366028093650252
:10214000E0916902F0916A02309721F00084F185F4
:10215000E02D0994089585B7806885BF85B78068AC
:1021600085BF0895089508950C94B21008950C94B5
:10217000B6100E94AB100E94B3100C94B41081E012
:1021800008950E94F01D0E94DB020E94661E0E94BC
:10219000BF0C0C94B7105F926F927F928F929F92B8
:1021A000AF92BF92CF92DF92EF92FF920F931F9365
:1021B000CF93DF93CDB7DEB72A970FB6F894DEBF83
:1021C0000FBECDBF0E940A030E94BF10882309F4EE
:1021D0007AC09CE6A92E92E0B92E10E000E0882497
:1021E0008394912C502E802F0E94DE037C01F501F8
:1021F000C190D1905F01C816D90609F45EC08091E4
:10220000F80281FD0E94E70390E080E0CE24DF2405
:102210003401082E02C0660C771C0A94E2F796017E
:1022200026213721232B09F443C08E835F82E620C9
:10223000F72081E0EF2809F480E088870E94F91DEB
:102240008160782F9A8789874E815F8168858A852A
:102250000E948A11000F111FF801E459FD4F80817F
:10226000918168267926718260820E94F91F0E94FE
:102270004B1090916B028917B9F10E944B1080931B
:102280006B022A960FB6F894DEBF0FBECDBFDF916A
:10229000CF911F910F91FF90EF90DF90CF90BF9063
:1022A000AF909F908F907F906F905F900C941E04E2
:1022B00001968C30910509F0ABCF0F5F1F4F0430B2
:1022C000110509F08FCF8FEF89838A831B820E94CB
:1022D000F91D8160782F9D838C8349815A816B81A0
:1022E0008D810E948A11C1CF2A960FB6F894DEBF65
:1022F0000FBECDBFDF91CF911F910F91FF90EF9057
:10230000DF90CF90BF90AF909F908F907F906F9015
:102310005F900895CF93DF93CDB7DEB72B970FB6BD
:10232000F894DEBF0FBECDBF4F83588769877A8789
:102330008B871E821D8285E0FE013796DE01119695
:1023400001900D928A95E1F749815A816B817C81D8
:102350008D819E812B960FB6F894DEBF0FBECDBF48
:10236000DF91CF910C949A18FC01808191810C949B
:10237000651BCF93C82F882309F4E6C08238C1F4C7
:102380000E944B1081FDE0C089E30E94931B0E94D4
:10239000071C2FEF81EE94E0215080409040E1F740
:1023A00000C0000089E30E949A1BCF910C94071C87
:1023B0008338A1F40E944B1080FDC6C083E50E94C3
:1023C000931B0E94071C2FEF81EE94E02150804068
:1023D0009040E1F700C0000083E5E5CF8438A1F428
:1023E0000E944B1082FDB0C087E40E94931B0E94A4
:1023F000071C2FEF81EE94E0215080409040E1F7E0
:1024000000C0000087E4CFCF8CEF8C0F813A48F4F6
:102410008C2F0E942922811197C08C2F0E94931B20
:10242000C4CF80E28C0F883048F4C77081E001C0CF
:10243000880FCA95EAF70E94BB1BB7CF8BE58C0FBC
:10244000833068F481E890E0C53A31F083E890E0A9
:10245000C63A11F482E890E0CF910C947F1088E5A1
:102460008C0F873108F068C082EE90E0C83A09F41A
:1024700060C089EE90E0C93A09F45BC08AEE90E052
:10248000CA3A09F456C085EB90E0CB3A09F451C042
:1024900086EB90E0CC3A09F44CC083EB90E0CB3B68
:1024A00009F447C084EB90E0CC3B09F442C087EBD1
:1024B00090E0CD3AF1F18CEC90E0C03BD1F18DECA5
:1024C00090E0CE3AB1F183E891E0CF3A91F18AE819
:1024D00091E0C13B71F182E991E0C23B51F184E9A5
:1024E00091E0C33B31F181E292E0C43B11F183E220
:1024F00092E0C53BF1F084E292E0C63BD1F085E288
:1025000092E0C73BB1F086E292E0C83B91F087E2EF
:1025100092E0C93B71F08FE690E0CD3B51F080E74F
:1025200090E0CE3B31F090E080E0CA3B11F48AE2CB
:1025300092E0CF910C949510C03F30F08C2F0E9408
:10254000021FCF910C94EE1FCF910895882309F4B8
:1025500052C0823871F40E944B1081FF4CC089E355
:102560000E94931B0E94071C89E30E949A1B0C94F3
:10257000071C833859F40E944B1080FF3CC083E550
:102580000E94931B0E94071C83E5EFCF843859F407
:102590000E944B1082FF2FC087E40E94931B0E9471
:1025A000071C87E4E2CF9CEF980F913AF0F290E29B
:1025B000980F983050F4877091E001C0990F8A9578
:1025C000EAF7892F0E94C11BD2CF9BE5980F933069
:1025D00020F490E080E00C947F1098E5980F9731FC
:1025E00020F490E080E00C949510803F20F00E9451
:1025F0006A1F0C94EE1F0895882321F00E94BB1BD4
:102600000C94071C0895882321F00E94C11B0C9490
:10261000071C08958F929F92AF92BF92DF92EF9224
:10262000FF920F931F93CF93DF937C01D62FC72F79
:10263000FC01058102950F70128111110E94DA1BB5
:102640000E94B11BD82E882371F0112331F180E252
:102650008D0F883010F182E00E94521C0E94B11B45
:1026600091E0D82ED926BC2EB2949FE0B922EB2D52
:10267000F0E0E35CFC4E0C943B2D4F134F139F1383
:102680009F13E6130E14ED13ED135014ED13EB141A
:10269000EB147515ED13ED137E15D12CE4CF0C2F33
:1026A0000F70C07F11F00295007F1123A9F0002365
:1026B00059F080E28D0F883010F0D11109C0802FC1
:1026C0000E94BB1B0E94071C8D2F0E94B91114C0D1
:1026D000802F0E94CC1BF6CF8D2F0E94A6120023C4
:1026E00059F080E28D0F883010F0D11124C0802F76
:1026F0000E94C11B0E94071CDD2009F406C20E9433
:10270000AD1B80FD02C2F70112820E94A71B0E942E
:102710002D1AC7010E9491150E94A71BDF91CF912E
:102720001F910F91FF90EF90DF90BF90AF909F901F
:102730008F900C944E1A802F0E94D21BDBCFFC2F5F
:10274000FF70BF2EC07FC03219F0B29480EFB82264
:10275000DD2369F0D13049F1112391F1002351F1CA
:10276000F701858180FFB0CF8F70858323C011234F
:1027700081F0011106C00E94EE1B8B290E94FC1201
:10278000BBCF0130C1F70E94EE1B8B290E94F41BC6
:10279000B3CF011106C00E94FD1B8B2D0E940313B5
:1027A000ABCF013009F4A8CFF6CF112329F00630C2
:1027B00008F0A2CF8B2DE2CF053008F09DCFEDCFF2
:1027C000002359F38D2F0E94A61296CF8C2F869549
:1027D0008695837079F08130B9F098E0B91609F4E4
:1027E0009BC0B91608F488CF86EF8B0D823008F4B1
:1027F00093C082CF8D2F9C2F9370111102C090E057
:1028000080E00E947F1078CF8D2F9C2F9370111144
:1028100002C090E080E00E9495106ECF112309F174
:10282000D53F99F0D63FB9F0D43F49F480914603A3
:1028300090914703816090934703809346038D2FC7
:102840000E94021F0E94EE1F57CF80914603909175
:1028500047038260F0CF80914603909147038460E4
:10286000EACFD53F89F0D63FA9F0D43F49F4809113
:102870004603909147038E7F9093470380934603CE
:102880008D2F0E946A1FDECF8091460390914703EF
:102890008D7FF2CF80914603909147038B7FECCFE1
:1028A0008C2F837009F04BC0111136C02D2F22954B
:1028B00026952770220F220F6D2F6F70862E912C78
:1028C000B12CA12C022E04C0880C991CAA1CBB1C84
:1028D0000A94D2F760E070E0CB01D4FF0FC06FE044
:1028E00070E080E090E004C0660F771F881F991F9A
:1028F0002A95D2F76095709580959095C695C69566
:10290000C370C23071F0A0F4682979298A299B2903
:10291000C13091F00E94DF190E944B100E941E04EA
:10292000EBCE682979298A299B290E94F119F4CFD5
:102930000E94DF19C501B4010E94CD19EDCF869523
:10294000112311F08C2F8170882331F32D2F2295C4
:1029500026952770220F220F6D2F6F70862E912CD7
:10296000B12CA12C022E04C0880C991CAA1CBB1CE3
:102970000A94D2F760E070E0CB01D4FF0FC06FE0A3
:1029800070E080E090E004C0660F771F881F991FF9
:102990002A95D2F76095709580959095C695C695C5
:1029A000C370C23051F080F4682979298A299B29A3
:1029B000C13071F00E94A41AAFCF682979298A2901
:1029C0009B290E94B61AA8CF0E94A41AC501B4017F
:1029D0000E94921AA1CFE0E2ED0FE53108F066C047
:1029E000F0E0EB50FB4E0C943B2D0A150A150A152E
:1029F0000A150A150A150A150A150A150A150A15DF
:102A00000A150A150A150A150A151B152915301578
:102A100037154115DF708C2F8F71112331F00E9413
:102A20002D1A8D2F0E94FC12D8CE0E944E1A8D2F87
:102A30000E940313D2CE112341F0053008F0CDCE11
:102A40008C2F8F710E94711AC8CE063008F0C5CE47
:102A5000F7CF8C2F8F71112339F00E942D1ABDCE24
:102A60008C2F8F711123C9F30E944E1AB6CE1123F9
:102A700029F08C2F8F710E94181AAFCE0E94131A62
:102A8000ACCE112349F0CF718C2F0E942D1A63E038
:102A90008C2F0E943D1CA1CE81E00E94521C02306E
:102AA00008F49BCE82E00E94521C97CE112349F07D
:102AB000002321F08D2F0E94B9118FCE8C2F8F71A2
:102AC000CCCF002379F0D93349F4FFEF27EE83E030
:102AD000F15020408040E1F700C000008D2F0E949F
:102AE000A6127BCE8C2F8F71BFCF4C2F4F706D2FC6
:102AF000C7010E9413070E944319FECD4C2F4F704F
:102B00006D2FC7010E941607F7CDDF91CF911F915E
:102B10000F91FF90EF90DF90BF90AF909F908F90BC
:102B200008950F931F93CF93DF93EC0198818981D0
:102B30002B813C81232B39F08F3F19F481E09F3F9B
:102B400019F080E001C081E080FD17C0CE010E9435
:102B50007504882391F0688179818A810E946F1BB6
:102B60008C010E94C81A0E94CA19B801CE01DF91D7
:102B7000CF911F910F910C940A13DF91CF911F9168
:102B80000F9108950E94DA1B0E94EB1B0E94071C04
:102B90000E9484200E94EE1F90E080E00E947F103F
:102BA00090E080E00C9495100E94A11B0C94C2153B
:102BB0000E94C91B0C94D415E92FE295EF70E250E6
:102BC000EE30E0F4F0E0E951FA4E0C943B2DF515AF
:102BD000F515FE15FE150016FE15FE15FE15F5156C
:102BE000F5150516FE15FE150516803F19F020F4A3
:102BF000803E20F481E00895843FE1F380E0089571
:102C0000803EC0F3813FD1F7F5CF93FB882780F951
:102C100008950E94651B0C94DC15CF93DF9300D0C0
:102C200000D01F92CDB7DEB70F900F900F900F908E
:102C30000F90DF91CF910895CF93DF9300D000D014
:102C400000D0CDB7DEB726960FB6F894DEBF0FBE24
:102C5000CDBFDF91CF9108951F93CF93DF93C091A4
:102C6000750216E0809176028C1304C0DF91CF913B
:102C70001F910895D0E01C9FF0011D9FF00D1124BD
:102C8000E958FD4F40815181628173818481958132
:102C90000E941C162196C770E5CF4091A702509163
:102CA000A8026091A9027091AA028091AB02909152
:102CB000AC020C941C161F93CF93DF938091AC024F
:102CC000807FD1F48091A9028823B1F080917502B0
:102CD000D0917602B091A702C091A8024091AA02B9
:102CE0005091AB02A1E0BF3F09F0A0E0BA016095AE
:102CF000709516E0D81304C0DF91CF911F9108950D
:102D000021E04115510521F02A2FCF3F09F020E0A5
:102D100090E020FD38C0189FF001199FF00D11249C
:102D2000E958FD4F21812C132EC020812B132BC07D
:102D30002281211128C0238134812417350700F115
:102D4000241B350B283C3105F0F42091AC022F7088
:102D500020612093AC0226E0289FF001299FF00D0E
:102D60001124E458FD4F80818F708061808387EA51
:102D700092E00E949115DF91CF911F910C942C1637
:102D8000260F371FDFCF01968770B4CFAF92BF9267
:102D9000CF92DF92EF92FF920F931F93CF93DF9327
:102DA000CDB7DEB761970FB6F894DEBF0FBECDBFCB
:102DB0008C0185E0F801DE011D9601900D928A9547
:102DC000E1F7D8014C9111965C9111971296EC9015
:102DD0003091A7026091A8028091AA029091AB0263
:102DE00021E0009731F06F3F19F421E03F3F09F0F7
:102DF00020E0B22FB170BB2E20FD80C1F801C3804E
:102E0000D480A090A902AA2009F427C1C816D90627
:102E1000D0F1D601A81BB90BCD01FF24F394883C57
:102E2000910508F0F12C8091AC02982F907FFF2043
:102E300009F4CEC0911187C0FE2C651329C034134C
:102E400027C0E11025C08F7080618093AC020E9482
:102E50004D1687EA92E00E9491158091AC02F8012C
:102E600085838F2D61960FB6F894DEBF0FBECDBF60
:102E7000DF91CF911F910F91FF90EF90DF90CF9056
:102E8000BF90AF900895809590958C0D9D1DC5CFF6
:102E900081E0CD2831F05F3F19F481E04F3F09F028
:102EA00080E080FD24C081E08E25F82FF170DF2EB8
:102EB00080FF3FC0809175022091760236E0821338
:102EC00018C04D875E878D859E850E94651B292FC2
:102ED00022952F70223008F1243030F59F7009F1CF
:102EE000D80115969C91907FE1F4FB2CBACF80E03D
:102EF000DCCF90E0389FF001399FF00D1124E958A4
:102F0000FD4F6181561306C06081461303C0628184
:102F10006E110FC001968770D2CF9F7011F0882379
:102F200021F3805E883008F3C8010E949115BD2C02
:102F3000DCCFEE2009F495CF8091AC0281608093C4
:102F4000AC02F12C8ECF651314C0341312C0E11003
:102F500010C0F8018583C8010E94911586E0F80130
:102F6000A7EAB2E001900D928A95E1F70E944D1612
:102F700078CF4D875E878D859E850E9409168823B0
:102F800019F1EE2009F18091AC02803270F02091AD
:102F9000A7023091A80238872F831986DB86CA865C
:102FA0008C87CE0107960E94911586E0F801A7EA6A
:102FB000B2E001900D928A95E1F70E945B160E94A3
:102FC0004D16FF24F3944DCFC8010E949115F9CFFF
:102FD000911113C07C2DD98AC88A6E2D89890E94CF
:102FE0000D1687EA92E00E94911586E0E7EAF2E08A
:102FF000DF011D928A95E9F7B9CF651312C034132A
:1030000010C0E1100EC0F8018583C8010E9491151F
:10301000E7EAF2E086E0DF011D928A95E9F7FA2CF3
:1030200020CF4D875E878D859E850E940916882357
:1030300059F2EE2049F28091AC02803208F4B5CF0B
:103040002091A7023091A8023A8329831B82DD8256
:10305000CC828E83CE010196A6CFC816D90638F150
:10306000F601E81BF90BCF01F12C883C910508F023
:103070003DC0FE2CEE2009F4A7CF651326C0341303
:1030800024C08091AC0280FD17C0982F907FA1F0E2
:10309000D80115968C931597903F09F45CCF982F23
:1030A000907F905F8F70892B15968C9354CF80956D
:1030B00090958C0D9D1DD8CF86E0F801A7EAB2E06F
:1030C00001900D928A95E1F7CCCE4D875E878D8574
:1030D0009E850E940916811168CF8091AC028160A3
:1030E0008093AC02C8010E949115BBCE7C2DD98A79
:1030F000C88A6E2D89890E940D1677CFEE2009F4BB
:1031000063CF4D875E878D859E850E940916F82EB8
:10311000882309F459CF86E0F801A7EAB2E00190CC
:103120000D928A95E1F787EA92E00E94B4110E941D
:103130005B161CCF1F93CF93DF93CDB7DEB72C97D1
:103140000FB6F894DEBF0FBECDBF4F835887698797
:103150007A878B879C87CE0107960E94C6168823A4
:1031600009F442C09F8188852A853B85232B39F04D
:103170008F3F19F481E09F3F19F080E001C081E0AA
:1031800080FD08C04F81588569857A858B859C852F
:103190000E941C1616E080917502909176028917A4
:1031A00009F467C0819FC001112489589D4F0E9476
:1031B000C616882309F45DC0E09175021E9FF001D8
:1031C0001124E958FD4F40815181628173818481CE
:1031D00095810E941C168091750290E0019687707F
:1031E000992780937502D7CF86E0FE013796DE01DE
:1031F000119601900D928A95E1F79F8188852A8525
:103200003B85232B39F08F3F19F481E09F3F19F064
:1032100080E001C081E080FDBDCF2091760230E0EA
:10322000C9010196877099274091750248171906C0
:1032300099F096E0929FD001939FB00D1124A95868
:10324000BD4FFE01319601900D929A95E1F7809362
:1032500076020E942C169ECF0E94D81510927602FC
:103260001092750286E0E7EAF2E0DF011D928A958E
:10327000E9F72C960FB6F894DEBF0FBECDBFDF91F5
:10328000CF911F910895EF92FF920F931F93CF93C9
:10329000DF938C01892B81F0F12CEE24E394E8017B
:1032A0002196F8018491843770F4843008F05FC06F
:1032B0008130B1F08230A1F1DF91CF911F910F9158
:1032C000FF90EF900895853709F44CC008F43DC095
:1032D0009CE7980F903780F78F770E94A61249C01D
:1032E0000E5F1F4FFE01849190E2980F983060F4BA
:1032F0008770FE2D01C0FF0F8A95EAF78F2F0E947D
:10330000DD1B0E94071C02C00E94B9118F2D815045
:1033100030F2EFE9FFE03197F1F700C00000F7CF9E
:103320000E5F1F4FFE01849190E2980F983050F489
:103330008770FE2D01C0FF0F8A95EAF78F2F0E943C
:10334000E31BDFCF0E94A612E1CF0E5F1F4FFE01ED
:10335000C491C150D8F28FE99FE00197F1F700C006
:103360000000F7CF0E5F1F4FFE01F490CFCF0E94F9
:10337000B9118E01CBCF08950C94BB190E94BC19D2
:103380006093CF027093D0028093D1029093D202C7
:103390000C94C21508950C94BE190F931F930091BD
:1033A000CF021091D0022091D1023091D202602B35
:1033B000712B822B932B1F910F910C94BE190F939D
:1033C0001F930091CF021091D0022091D102309131
:1033D000D20260237123822393231F910F910C94B7
:1033E000BE190F931F930091CF021091D00220912C
:1033F000D1023091D20260277127822793271F9133
:103400000F910C94BE190C94BB190C94031A0E94D2
:10341000051A6093CB027093CC028093CD029093F7
:10342000CE020C94C21560E070E0CB010C94071A38
:103430000F931F9341E050E060E070E08A019B0130
:1034400004C0000F111F221F331F8A95D2F7C90134
:10345000B8011F910F910C94071A0F931F9341E02D
:1034600050E060E070E004C0440F551F661F771FF6
:103470008A95D2F78091CB029091CC02A091CD0297
:10348000B091CE028A019B01082B192B2A2B3B2BD2
:10349000C901B8011F910F910C94071A0F931F9344
:1034A00041E050E060E070E004C0440F551F661F2B
:1034B000771F8A95D2F7CB01BA01609570958095F8
:1034C00090950091CB021091CC022091CD023091C9
:1034D000CE0260237123822393231F910F910C94BA
:1034E000071A0F931F9341E050E060E070E004C0C2
:1034F000440F551F661F771F8A95D2F78091CB0224
:103500009091CC02A091CD02B091CE028A019B0194
:10351000082719272A273B27C901B8011F910F91B6
:103520000C94071A0F931F930091CB021091CC02B9
:103530002091CD023091CE02602B712B822B932BE8
:103540001F910F910C94071A0F931F930091CB02B8
:103550001091CC022091CD023091CE0260237123D4
:10356000822393231F910F910C94071A0F931F939B
:103570000091CB021091CC022091CD023091CE026D
:1035800060277127822793271F910F910C94071AA8
:1035900008952CE0929F800D1124982F977071E070
:1035A00001C0770F9A95EAF786958695869525E06E
:1035B000829FC001112450E040E0A62FB0E0FC0142
:1035C000E40FF51FE355FD4F60819D01042E02C0FD
:1035D000369527950A94E2F721702195262727230F
:1035E000262720834F5F5F4F4530510541F70895EF
:1035F0002CE0929F800D1124982F977086958695C8
:10360000869525E0829FA001112470E060E080E0B3
:10361000FA01E60FF71FE355FD4F208130E0092E38
:1036200002C0369527950A94E2F721703327062EBB
:1036300001C0220F0A94EAF7822B6F5F7F4F65303B
:10364000710531F70895BF92CF92DF92EF92FF920A
:103650000F931F93CF93DF938C01C090CB02D09038
:10366000CC02E090CD02F090CE028091CF029091FA
:10367000D002A091D102B091D202C82AD92AEA2A56
:10368000FB2ACFE1D0E0BC2ED701C6010C2E04C02E
:10369000B695A795979587950A94D2F780FD0EC0A9
:1036A000219788F7B12C8B2DDF91CF911F910F912E
:1036B000FF90EF90DF90CF90BF900895B8018C2FCE
:1036C0000E943307019761F3EECFCF93DF93EC01B4
:1036D0000E94231BBE01DF91CF910C9433071F93EF
:1036E000CF93DF93EB0190917402992331F0CB01DA
:1036F000DF91CF911F910C94651B882379F0CB014A
:103700000E94231B182F682FCE010E94C91ABE01E8
:10371000812FDF91CF911F910C943307CB010E9431
:10372000F81A182FF4CF682F80910F019091100193
:103730000C944A1D682F80910F01909110010C94F8
:10374000551D80910F01909110010C94601D809186
:10375000D30285958595859508958091D3028770CC
:1037600008959091D302977081E009F480E0089564
:103770008091F70208959091F702892B8093F702C8
:103780000895982F90958091F70289238093F702EE
:1037900008951092F70208959091F602892B809374
:1037A000F6020895982F90958091F60289238093D0
:1037B000F60208951092F60208959091F502892B71
:1037C0008093F5020895982F90958091F5028923B2
:1037D0008093F50208951092F50208958091D40225
:1037E000089508950C94F11B9091D402981721F03C
:1037F0008093D4020C94F21B08958091D402882304
:1038000029F01092D40280E00C94F21B0895E0910C
:103810000F01F09110018091F7028083E0910F0178
:10382000F091100180819091F602892B8083E091C4
:103830000F01F091100180819091F502892B808316
:103840009091D402992381F0E0910F01F091100141
:103850008081892B808380910F01909110010E94BB
:10386000E61C81110E94FD1B80910F0190911001B7
:103870000C94571008950C943A1C98E0899F90017D
:103880001124622B6093D3020E942D1A8091D302DF
:103890008595859585950C943B1C1092D30280E00C
:1038A0000C943B1C9091D302809589238093D30282
:1038B000282F277071F4282F082E000C330B921735
:1038C000130639F08595859585950E944E1A0C94BE
:1038D0004D1C089590E080E00E945C2D21E08D3E1B
:1038E0009E4F09F020E0822F089582E090E00C9432
:1038F0004E2D83E090E00C944E2D84E090E00C94EB
:103900004E2D682F84E090E00C94622DAB01BC0139
:103910008FE090E00C94742DAB01BC0183E190E04A
:103920000C94742D60E070E0CB010C948C1C60E072
:1039300070E0CB010E94861C0C94921C6DEE7EEF11
:1039400090E080E00E94802D60E082E090E00E94A4
:10395000622D60E083E090E00E94622D1092CF0221
:103960001092D0021092D1021092D20260E084E054
:1039700090E00E94622D60E085E090E00E94622D60
:1039800060E086E090E00E94622D6FEF87E090E0BB
:103990000E94622D40E050E0BA0188E090E00E9471
:1039A000742D60E08DE090E00E94622D40E050E0D8
:1039B000BA0188E190E00E94742D60E087E190E018
:1039C0000E94622D0C94971C0C949E1CFC01329654
:1039D00080912101882321F080914C039EE187FF93
:1039E00096E080E0915008F4089521912223D1F3CC
:1039F0008F5FF8CF9C01FC0132969FEF80E04191F0
:103A0000461751F09F3F19F4411101C0982F8F5F65
:103A10008630A9F79F3F09F40895290F311D97FDBE
:103A20003A95F90162830895FC0132960896219136
:103A3000261303C0DF0111971C92E817F907B9F7A5
:103A40000895E62FE695E695E695EE3168F4E80FE1
:103A5000F92FF11D677021E030E001C0220F6A9557
:103A6000EAF78281822B82830895E62FE695E69518
:103A7000E695EE3170F4E80FF92FF11D677021E043
:103A800030E001C0220F6A95EAF720958281282351
:103A90002283089520912101222329F020914C03B3
:103AA00027FD0C94211D0C94FA1C20912101222346
:103AB00029F020914C0327FD0C94351D0C94141D06
:103AC000FC01329680912101882351F080914C03B2
:103AD00087FF06C08EE1DF011D928A95E9F7089500
:103AE00086E0F9CF089508950C94731D0E94741D0B
:103AF00080915203843049F11092F90288E190E0FC
:103B000020E40FB6F894A895809360000FBE209330
:103B1000600080E00E941E040E94741D83B7817FB4
:103B2000846083BF83B7816083BF7894889583B7AF
:103B30008E7F83BF0FB6F894A8958091600088614E
:103B400080936000109260000FBE08950895CF9397
:103B50000E94721D0E940A030E94A61DC0E08C2FC5
:103B60000E94DE03892B31F4CF5FC430C1F780E0BF
:103B7000CF91089581E0FCCF08950C94BC1D0E9464
:103B8000D8150E944B100E941E040C94BD1D1F925C
:103B90000F920FB60F9211248F939F93AF93BF9301
:103BA0008091F902811113C08091480390914903DB
:103BB000A0914A03B0914B034196A11DB11D809382
:103BC000480390934903A0934A03B0934B03BF91DA
:103BD000AF919F918F910F900FBE0F901F901895EE
:103BE00082E084BD93E095BD9AEF97BD80936E000F
:103BF00008952FB7F8948091480390914903A091BC
:103C00004A03B0914B032FBF0895CF92DF92EF92FA
:103C1000FF920F931F932FB7F89440914803509150
:103C2000490360914A0370914B032FBF6A017B01E6
:103C3000EE24FF248C0130E020E0C016D106E2061D
:103C4000F30650F0481B590BCA011F910F91FF90CA
:103C5000EF90DF90CF90089541505109F3CF7894C1
:103C60001F920F920FB60F9211248F939F93AF93D1
:103C7000BF938091480390914903A0914A03B0916A
:103C80004B030196A11DB11D8093480390934903F6
:103C9000A0934A03B0934B03BF91AF919F918F9133
:103CA0000F900FBE0F901F90189587E797E790939E
:103CB00001088093000888E19AE00FB6F894A8956F
:103CC000809360000FBE90936000FFCF0E946A1C3B
:103CD000811102C00E94E41C0E94751C8093F802AE
:103CE0000E947D1C90E090934D0380934C030E94B2
:103CF000791C682F70E090E080E00C94CB198091E3
:103D0000FD0280FF12C06091140185E0689FB00140
:103D10001124759567957595679560387105A8F5B7
:103D200061157105A1F1862F089581FF09C0609189
:103D3000140185E0689FB001112475956795EDCF5A
:103D400082FF07C06091140185E0689FB0011124D3
:103D5000E4CF2091FC022223A9F0909113016091FD
:103D6000140185E0689FB00111242917B0F6269F41
:103D7000A001279F500D1124692F70E0CA010E94F5
:103D8000272DCBCF65E070E0CECF8FE7089581E09F
:103D900008958091FD0280FF0CC06091120170E0D7
:103DA00075956795759567956115710549F1862F2C
:103DB000089581FF06C06091120170E075956795C6
:103DC000F3CF6091120182FD0BC09091FC02992308
:103DD000A1F06091110180911201961738F0682FBF
:103DE00070E06038710500F38FE70895899FC00186
:103DF000112470E00E94272DF4CF61E070E0D7CF4E
:103E000081E00895803F31F40E947F1E8195809368
:103E100001030895813F19F40E947F1EF8CF823F6D
:103E200031F40E947F1E8195809300030895833FA3
:103E300019F40E947F1EF8CF893F29F40E94C91E01
:103E40008093020308958A3F21F40E94C91E819540
:103E5000F7CF8B3F31F40E94C91E819580930303F5
:103E600008958C3F19F40E94C91EF8CF843F31F4A5
:103E70008091FF0281608093FF020895853F21F4C5
:103E80008091FF028260F7CF863F21F48091FF028C
:103E90008460F1CF873F21F48091FF028860EBCFEF
:103EA000883F21F48091FF028061E5CF8D3F31F49E
:103EB0008091FD0281608093FD0208958E3F21F480
:103EC0008091FD028260F7CF8F3FB9F78091FD02AC
:103ED0008460F1CF803FC1F48091010387FD10928F
:103EE00001038091000381110EC0809101038111B3
:103EF0000AC080910203811106C0809103038111E1
:103F000002C01092FC020895813F29F480910103C0
:103F100018162CF3E6CF90910003823F29F497FF07
:103F2000E0CF10920003DDCF833F19F41916CCF3D4
:103F3000D8CF893F39F480910203181694F6109275
:103F40000203CFCF8A3F29F48091020387FFC9CFB4
:103F5000F6CF8B3F39F48091030387FFC2CF1092D5
:103F60000303BFCF8C3F29F4809103031816BCF3E1
:103F7000B8CF843F31F48091FF028E7F8093FF029F
:103F8000B0CF853F21F48091FF028D7FF7CF863F30
:103F900021F48091FF028B7FF1CF873F21F4809144
:103FA000FF02877FEBCF883F21F48091FF028F7E55
:103FB000E5CF8D3F31F48091FD028E7F8093FD022D
:103FC00090CF8E3F21F48091FD028D7FF7CF8F3F00
:103FD00009F087CF8091FD028B7FF0CF8EEF92E0CA
:103FE0000E9471100E94F91D9093FB028093FA02C7
:103FF00008951F93CF93DF938091FA029091FB0273
:104000000E94051EAC019091FC022091150130E048
:10401000911106C0209116018AE0289F9001112479
:104020004217530780F08091000310910103D09153
:104030000203C091030381110AC0111161C0D111A3
:104040005FC0C1115DC0DF91CF911F9108959F3F67
:1040500019F09F5F9093FC02181624F40E947F1EB3
:10406000809300038091000387FF05C00E947F1E9C
:10407000819580930003111624F40E947F1E809383
:1040800001038091010387FF05C00E947F1E819577
:104090008093010340910003442379F030910103A0
:1040A000332359F025EB4203A00111245093000360
:1040B000320390011124309301031D1624F40E9451
:1040C000C91E809302038091020387FF05C00E94EE
:1040D000C91E8195809302031C1624F40E94C91EF8
:1040E000809303038091030387FF05C00E94C91ECC
:1040F000819580930303DF91CF911F910C94EE1F64
:104100009F3F09F0A6CFB7CF86E0EEEFF2E0DF01E8
:104110001D928A95E9F71092FC021092FD02089513
:10412000833081F128F4813059F08230D1F0089544
:10413000853009F449C0B8F1863009F456C00895B5
:1041400080911601482F460F5527551F4F3F5105A7
:1041500024F4680F6093160108958FEF8093160181
:10416000089580911501482F460F5527551F4F3F41
:10417000510524F4680F6093150108958FEF809323
:104180001501089580911401482F460F5527551F9A
:104190004F3F510524F4680F6093140108958FEF89
:1041A00080931401089580911301482F460F5527DD
:1041B000551F4F3F510524F4680F60931301089574
:1041C0008FEF80931301089580911201482F460FBD
:1041D0005527551F4F3F510524F4680F6093120176
:1041E00008958FEF80931201089580911101482F57
:1041F000460F5527551F4F3F510524F4680F609314
:10420000110108958FEF809311010895833011F10A
:1042100028F4813049F0823091F00895853081F1A1
:1042200020F18630C1F1089580911601681720F4BD
:10423000861B8093160108951092160108958091AF
:104240001501681720F4861B8093150108951092BC
:104250001501089580911401681720F4861B80933E
:1042600014010895109214010895809113016817A4
:1042700020F4861B80931301089510921301089572
:1042800080911201681720F4861B80931201089513
:1042900010921201089580911101681720F4861B75
:1042A0008093110108951092110108950F931F93A7
:1042B00041E050E060E070E08A019B0104C0000F23
:1042C000111F221F331F8A95D2F7C901B8010E941E
:1042D000CB191F910F910C94D815EBEFE80FEF332A
:1042E00008F0A6C0F0E0E958FE4D0C943B2DC42127
:1042F000BA21D221B82118221822B8211822182256
:10430000EF211822FA210522182218221822182239
:10431000B82118221822B8211822E12118221822C7
:1043200016221622162216221622162216221622CD
:10433000162210221822C421B6211822182218226F
:1043400018221822182218221822182218221022A5
:1043500018221822B82118221422142214221422FE
:104360001422142214221422142210220E94E41C6B
:1043700081E008958091F802817F8E7F8093F8021A
:1043800081E08093050308950E94D8152FEF83EDF7
:1043900090E3215080409040E1F700C000000E946F
:1043A000551EE6CF9091F802892F8E7F90FF816095
:1043B0008093F80280FDDCCF897F877F8093F802AD
:1043C000D7CF9091F802892F8D7F91FF82608093E3
:1043D000F80281FFCDCF8091F8028160EFCF9091FC
:1043E000F802892F8B7F92FF84608093F80282FD10
:1043F000F2CFBECF9091F802892F877F93FF88601C
:104400008093F80283FDE7CFB3CF0E94D815909137
:104410004C03892F97FB87F9805880934C03A8CFD2
:1044200080E00E945621A4CF8953FBCF8D51F9CF54
:1044300080E0089580E008950C941A228E518A300D
:1044400030F4E82FF0E0EE5DFE4F8081089580E0CB
:104450000895CF93C82F809105038130B1F030F0DB
:104460008230A9F11092050380E00DC00E94B81BB4
:104470008232D1F78C2F0E941A22811118C08C2F02
:104480000E946D218170CF9108950E94B81B8232E5
:1044900089F38C2F0E941C22811110C0C43181F03D
:1044A00048F4CB3059F0C03171F080E0EBCF81E0BF
:1044B00090E0E8CFC93221F0C833B9F781E0E2CF0C
:1044C00010920503F2CF82E080930503F7CFC93243
:1044D00019F188F4C43101F120F4C73081F181E091
:1044E000D2CF82EE8C0F8630D0F78C2F0E941E2206
:1044F00080930403F4CFCE3401F140F46AE0CB346E
:1045000071F7809104030E949020E9CFC13579F0C2
:1045100061E0C235B1F3E3CF80910403882319F041
:1045200010920403DCCF81E080930503ACCF61E0FF
:10453000809104030E940621D2CF6AE0F9CF8EE178
:104540008093160182E3809315018AE08093140121
:1045500084E18093130188E08093120188E28093C4
:104560001101BDCF8091260308950F931F93CF9320
:10457000DF9300D01F92CDB7DEB78C010E941B25C0
:10458000823011F0843021F584E089831B830A8313
:1045900082E08093E9008FEF9091E800815095FDD3
:1045A00006C095ED9A95F1F700008111F5CF809145
:1045B000E80085FF0DC050E040E063E070E0CE0110
:1045C00001960E9438258091E8008E778093E8005C
:1045D0000F900F900F90DF91CF911F910F91089541
:1045E000CF93DF9300D01F92CDB7DEB72091520357
:1045F000243031F523E02983805891099B838A83F5
:1046000082E08093E9008FEF9091E800815095FD62
:1046100006C095ED9A95F1F700008111F5CF8091D4
:10462000E80085FF0DC050E040E063E070E0CE019F
:1046300001960E9438258091E8008E778093E800EB
:104640000F900F900F90DF91CF910895CF93DF934C
:10465000EC010E941B25823011F08430F9F482E0D5
:104660008093E9008FEF9091E800815095FD06C09E
:1046700095ED9A95F1F700008111F5CF8091E80052
:1046800085FF0CC050E040E066E070E0CE010E9483
:1046900038258091E8008E778093E800DF91CF91F4
:1046A0000895CF93DF93EC010E941B25823011F017
:1046B0008430B9F5809121018823B1F180914C03B8
:1046C00087FF32C060E282E08093E9008FEF909133
:1046D000E800815095FD06C095ED9A95F1F7000030
:1046E0008111F5CF8091E80085FF1BC080912101E9
:1046F00070E050E040E0811104C050E040E068E02C
:1047000070E0CE010E9438258091E8008E7780937A
:10471000E80080E2FE01A6E0B3E001900D928A95E8
:10472000E1F7DF91CF91089568E081E0CDCF8091EE
:104730005103811109C00E94C8260E94252780913B
:10474000E20084608093E20008951092510308957E
:10475000089508950C94BF1D42E061EC81E00E9431
:10476000462642E261EC82E00C9446268091540396
:10477000833009F462C030F48130D9F1823009F419
:104780009EC008958A3009F48AC08B3009F470C045
:10479000893009F051C080915303813209F04CC037
:1047A0008091570390915803029708F045C080917B
:1047B000E800877F8093E8008091E80082FF38C09E
:1047C0008091F3009091F20089279827892702971A
:1047D00029F48091F1008B7F813021F48091F100E8
:1047E000809326038091E8008B778093E8000C94F7
:1047F0007A2680915303813AF9F48091E800877F0B
:104800008093E8008091570390915803892B61F4BD
:1048100060E286E093E070E00E9487258091E800E6
:104820008B778093E800089560E090E080E0F3CF1C
:10483000809152038111C0CF089580915303813A32
:10484000D9F78091570390915803892BA9F780914C
:10485000E800877F8093E8008091E80080FFFCCF2C
:10486000809121018093F1008091E8008E77BDCF87
:1048700080915303813201F780915703909158033F
:10488000892BD1F68091E800877F8093E8000E9411
:104890007A2680915503809321010C94D81580913C
:1048A0005303813249F68091E800877F8093E800C6
:1048B0000E947A2680915603809327030895809161
:1048C0005303813A09F0B8CF8091E800877F809345
:1048D000E8008091E80080FFFCCF80912703C2CFE1
:1048E00084B7877F84BF0FB6F894A8958091600045
:1048F000886180936000109260000FBE80E8809312
:104900006100109261000E94B9100E94C8260E94A6
:1049100025278091E20084608093E20078940E94D1
:10492000AE290E94C11087E191E00E94461080915B
:104930005203853029F00E94CB100E94D20FF7CF8E
:104940000E94761D80915003882389F30E94A71D41
:10495000882369F30E942225EACF0C94AF24292FE3
:1049600033272330310571F158F421303105E9F056
:104970002230310511F190E080E030E020E019C0F4
:1049800021323105C1F122323105A9F780E490E0EE
:1049900021ED34E06115710561F080EC90E021E1DA
:1049A00034E06130710529F0E6CF82E190E02FEF2D
:1049B00033E0FA013183208308958BE390E024EC07
:1049C00033E0F7CF99278130910579F040F08230BC
:1049D000910571F0039779F6EEE8F3E002C0E0ECA0
:1049E000F3E0849190E09F01E4CFE0EAF3E0F9CFB7
:1049F000E4E9F3E0F6CF89E090E026ED33E06115DD
:104A00007105B9F289E090E02FEE33E06130710575
:104A100081F2B1CF0895CF93C82F0E940A25C09389
:104A20002803CF91089580915203843011F081E0E2
:104A3000089582E0089580912803811102C00C94AA
:104A40001325089580E189BD82E189BD09B400FE86
:104A5000FDCF8091D8008F7D8093D8008091E000B9
:104A600082608093E0008091E00081FDFCCF08959A
:104A7000AF92BF92CF92DF92FF920F931F93CF938B
:104A8000DF936C01EB018A010E949926F82E8111B7
:104A900023C00115110539F0F80180819181C81BEF
:104AA000D90BC80ED91EB12CA12C2097A9F080914A
:104AB000E80085FD22C08091E8008E778093E800B1
:104AC00001151105A1F0F80180819181A80EB91E90
:104AD000B182A08285E0F82E8F2DDF91CF911F91BA
:104AE0000F91FF90DF90CF90BF90AF9008950E94FC
:104AF00099268823D1F2F82EEFCFF60181916F012C
:104B00008093F1002197FFEFAF1ABF0ACECFFC01CF
:104B10008091590390915A0386179707A0F0611569
:104B2000710529F49091E8009E779093E80090E059
:104B30006115710551F4911108C08091E80082FF60
:104B400035C080E00895BC01F2CF809152038823E4
:104B5000C9F18530C9F18091E80083FD31C08091B1
:104B6000E80082FDEACF8091E80080FFE1CF20914C
:104B7000F3008091F200322F282F6115710519F092
:104B80002830310558F091E02830310509F090E0E7
:104B90002091E8002E772093E800CACF819180937E
:104BA000F100615071092F5F3F4FE7CF80915203B1
:104BB000882341F0853041F08091E80083FFBDCF2C
:104BC00081E0089582E0089583E00895FC018091DA
:104BD000590390915A0386179707A0F06115710544
:104BE00029F48091E8008E778093E80090E06115C9
:104BF000710551F4911108C08091E80082FF36C020
:104C000080E00895BC01F2CF809152038823D1F156
:104C10008530D1F18091E80083FD32C08091E800B9
:104C200082FDEACF8091E80080FFE1CF2091F30080
:104C30008091F200322F282F6115710519F028306C
:104C4000310558F091E02830310509F090E080916D
:104C5000E8008E778093E800CACF84918093F100BA
:104C60003196615071092F5F3F4FE6CF809152031B
:104C7000882341F0853041F08091E80083FFBCCF6C
:104C800081E0089582E0089583E00895982F973099
:104C900028F08F708093E90081E008959093E900F7
:104CA000242F762F50E0981731F07091EC0020916E
:104CB000ED005091F00021FD02C09F5FE8CF3091E0
:104CC000EB003E7F3093EB003091ED003D7F309361
:104CD000ED003091EB0031603093EB007093EC000D
:104CE0002093ED005093F0002091EE0027FDE5CFDA
:104CF00080E008958091530387FF13C08091E800FE
:104D000082FF06C08091E8008B778093E80004C0A2
:104D1000809152038111F2CF08958091520388232C
:104D2000D9F38091E80080FFF8CF8091E8008E777A
:104D3000ECCF2091E4003091E50085E69091EC0005
:104D400090FF06C09091E80090FF06C080E00895B3
:104D50009091E80092FDFACF90915203992391F03F
:104D6000953091F09091EB0095FD10C04091E400DA
:104D70005091E5002417350709F381509A01F1F6A7
:104D800084E0089582E0089583E0089581E0089525
:104D90000E9436270E943E27E0EEF0E0808181608D
:104DA0008083E8EDF0E080818F77808319BCA7EDE8
:104DB000B0E08C918E7F8C9380818F7E8083109267
:104DC000510308950F931F93CF93DF930E943627CB
:104DD0000E943E27C8EDD0E088818F778883888144
:104DE0008068888388818F7D888319BC10925203E4
:104DF00010924E031092500310924F0300EE10E0F9
:104E0000F80180818B7F808388818160888342E084
:104E100060E080E00E944626E1EEF0E080818E7F37
:104E20008083E2EEF0E08081816080838081886011
:104E30008083F80180818E7F808388818061888370
:104E4000DF91CF911F910F910895E8EDF0E08081FF
:104E50008F7E8083E7EDF0E080818160808384E055
:104E600082BF81E0809351030C94E226E8EDF0E0EC
:104E700080818E7F80831092E20008951092DA0084
:104E80001092E10008951F920F920FB60F92112415
:104E90002F933F934F935F936F937F938F939F9342
:104EA000AF93BF93EF93FF938091E10082FF0BC01C
:104EB0008091E20082FF07C08091E1008B7F8093A8
:104EC000E1000E94AD298091DA0080FF19C0809135
:104ED000D80080FF15C08091DA008E7F8093DA00C1
:104EE0008091D90080FF94C080E189BD82E189BDB5
:104EF00009B400FEFDCF81E0809352030E94972306
:104F00008091E10080FF19C08091E20080FF15C010
:104F10008091E2008E7F8093E2008091E2008061C8
:104F20008093E2008091D80080628093D80019BC01
:104F300085E0809352030E94A9238091E10084FFC1
:104F400029C08091E20084FF25C080E189BD82E113
:104F500089BD09B400FEFDCF8091D8008F7D80937C
:104F6000D8008091E1008F7E8093E1008091E20083
:104F70008F7E8093E2008091E20081608093E20066
:104F800080914E03882309F449C084E08093520342
:104F90000E94AA238091E10083FF29C08091E20052
:104FA00083FF25C08091E100877F8093E10082E04C
:104FB0008093520310924E038091E1008E7F809384
:104FC000E1008091E2008E7F8093E2008091E20018
:104FD00080618093E20042E060E080E00E9446262B
:104FE0008091F00088608093F0000E94A823FF91D8
:104FF000EF91BF91AF919F918F917F916F915F9151
:105000004F913F912F910F900FBE0F901F901895C9
:1050100019BC109252030E94A52372CF8091E30025
:1050200087FD02C081E0B2CF83E0B0CF1F920F9224
:105030000FB60F9211242F933F934F935F936F936B
:105040007F938F939F93AF93BF93CF93EF93FF93F0
:10505000C091E900CF708091EC001092E90080913E
:10506000F000877F8093F00078940E94522810927D
:10507000E9008091F00088608093F000C093E9001F
:10508000FF91EF91CF91BF91AF919F918F917F91C0
:105090006F915F914F913F912F910F900FBE0F90A5
:1050A0001F9018951F93CF93DF93CDB7DEB7AA97C4
:1050B0000FB6F894DEBF0FBECDBFE3E5F3E08091FD
:1050C000F100819323E0EB35F207C9F70E94B62384
:1050D0008091E80083FF44C0809153039091540372
:1050E0009A3008F03DC0E92FF0E0E758F74D0C94F6
:1050F0003B2D8328A928B028A928B02807292929C9
:10510000B02880298D29803889F0823849F580912E
:1051100057038F70873020F58093E9008091EB0072
:1051200085FB882780F91092E90006C080914F0323
:1051300090915003911182609091E800977F909335
:10514000E8008093F1001092F1008091E8008E77E2
:105150002DC0282F2D7F21F48823D1F0823059F1E2
:105160008091E80083FF0AC08091E800877F8093E8
:10517000E8008091EB0080628093EB00AA960FB666
:10518000F894DEBF0FBECDBFDF91CF911F91089580
:1051900080915503813021F7933009F080E08093AE
:1051A00050031092E9008091E800877F8093E80027
:1051B0000E947A26D5CF809155038111F2CF80913C
:1051C00057038F702FEF280F263050F68093E90099
:1051D0002091EB0020FFE5CF933031F48091EB007C
:1051E00080628093EB00DDCF9091EB009061909313
:1051F000EB0021E030E001C0220F8A95EAF720930E
:10520000EA001092EA008091EB008860EACF8111F9
:10521000A7CF109155031F778091E3008078812BF1
:105220008093E3008091E800877F8093E8000E94EC
:105230007A268091E80080FFFCCF8091E3008068AF
:105240008093E30083E0111101C082E08093520358
:1052500087CF8058823008F083CF8091550390919A
:1052600056038C3D23E09207A1F583E08A838AE20E
:1052700089834FB7F894DE01139620E03EE051E2B7
:10528000E32FF0E050935700E49120FF03C0E29534
:10529000EF703F5FEF708E2F90E0EA30C0F0C7965E
:1052A0008D939D932F5F243159F74FBF8091E80074
:1052B000877F8093E8006AE270E0CE0101960E9449
:1052C00087258091E8008B778093E80049CFC096CE
:1052D000E7CF6091570370915803AE014F5F5F4F66
:1052E0000E94AD24BC01892B09F43ACF9091E800CB
:1052F000977F9093E80089819A810E94E625E1CF0B
:10530000803809F02DCF8091E800877F8093E800F6
:1053100080914E038093F10018CF811121CF90919D
:105320005503923008F01CCF8091E800877F80936E
:10533000E80090934E030E947A2680914E038823C2
:1053400031F084E0809352030E94AC2309CF809116
:10535000E30087FDF6CF81E0F5CF0895CF938091EC
:105360005203882399F0C091E900CF708091EC003E
:1053700080FD0EC080E0C82B1092E9008091E8000B
:1053800083FD0E945228CF70C093E900CF91089509
:1053900080E8F1CF5058BB27AA270E94E2290C943D
:1053A0008D2B0E947F2B38F00E94862B20F039F441
:1053B0009F3F19F426F40C94552B0EF4E095E7FB6F
:1053C0000C944F2BE92F0E949E2B58F3BA176207BB
:1053D00073078407950720F079F4A6F50C94C02B89
:1053E0000EF4E0950B2EBA2FA02D0B01B901900100
:1053F0000C01CA01A0011124FF27591B99F0593F44
:1054000050F4503E68F11A16F040A22F232F342F8B
:105410004427585FF3CF469537952795A795F040D9
:105420005395C9F77EF41F16BA0B620B730B840BEE
:10543000BAF09150A1F0FF0FBB1F661F771F881FA6
:10544000C2F70EC0BA0F621F731F841F48F48795FE
:1054500077956795B795F7959E3F08F0B0CF9395F0
:10546000880F08F09927EE0F9795879508950E9469
:105470004B2A0C948D2B0E94862B58F00E947F2B78
:1054800040F029F45F3F29F00C944F2B51110C94FC
:10549000C12B0C94552B0E949E2B68F39923B1F3DA
:1054A000552391F3951B550BBB27AA27621773074A
:1054B000840738F09F5F5F4F220F331F441FAA1FDE
:1054C000A9F335D00E2E3AF0E0E832D0915050409A
:1054D000E695001CCAF72BD0FE2F29D0660F771F48
:1054E000881FBB1F261737074807AB07B0E809F02E
:1054F000BB0B802DBF01FF2793585F4F3AF09E3FB3
:10550000510578F00C944F2B0C94C12B5F3FE4F3C2
:10551000983ED4F3869577956795B795F7959F5FF5
:10552000C9F7880F911D9695879597F90895E1E041
:10553000660F771F881FBB1F621773078407BA07A0
:1055400020F0621B730B840BBA0BEE1F88F7E095FB
:10555000089529F416F00C944F2B0C94C02B0C9446
:10556000552B0E94A62BA8F39638A0F707F80F92A8
:10557000E8942BE33AEA48EB5FE70E94532C0F9242
:105580000F920F924DB75EB70F920E94092CECEA72
:10559000F0E00E94582B4F915F91EF91FF91E595BC
:1055A000EE1FFF1F49F0FE57E0684427EE0F441F2F
:1055B000FA95E1F74195550B0E94D32B0F9007FE0A
:1055C0000C94C72B08950E94A62B88F09F5798F043
:1055D000B92F9927B751B0F0E1F0660F771F881FF8
:1055E000991F1AF0BA95C9F714C0B13091F00E9412
:1055F000C02BB1E008950C94C02B672F782F88271B
:10560000B85F39F0B93FCCF3869577956795B39538
:10561000D9F73EF490958095709561957F4F8F4FA7
:105620009F4F0895E89409C097FB3EF490958095AC
:10563000709561957F4F8F4F9F4F9923A9F0F92F58
:1056400096E9BB279395F695879577956795B795D6
:10565000F111F8CFFAF4BB0F11F460FF1BC06F5FBC
:105660007F4F8F4F9F4F16C0882311F096E911C0CE
:10567000772321F09EE8872F762F05C0662371F0EF
:1056800096E8862F70E060E02AF09A95660F771F03
:10569000881FDAF7880F9695879597F9089597F9F7
:1056A0009F6780E870E060E008959FEF80EC0895C8
:1056B000DF93CF931F930F93FF92EF92DF927B01C3
:1056C0008C01689406C0DA2EEF010E94502CFE0176
:1056D000E894A5912591359145915591A6F3EF0157
:1056E0000E94E229FE019701A801DA9469F7DF9090
:1056F000EF90FF900F911F91CF91DF9108950024BB
:105700000A941616170618060906089500240A9426
:1057100012161306140605060895092E0394000CAC
:1057200011F4882352F0BB0F40F4BF2B11F460FF3B
:1057300004C06F5F7F4F8F4F9F4F089557FD905864
:10574000440F551F59F05F3F71F04795880F97FB45
:10575000991F61F09F3F79F08795089512161306FF
:105760001406551FF2CF4695F1DF08C0161617062E
:105770001806991FF1CF8695710561050894089563
:10578000E894BB2766277727CB0197F908959B01FB
:10579000AC0160E070E080E89FE30C94372A0C9441
:1057A0004F2B0C94B22C0E94A62BD8F39923C9F34B
:1057B000940F511DA3F39150504094F059F0882359
:1057C00032F0660F771F881F91505040C1F79E3FFF
:1057D00051052CF7880F911D9695879597F9089597
:1057E0005F3FACF0983E9CF0BB2786957795679518
:1057F000B79508F4B1609395C1F7BB0F58F711F452
:1058000060FFE8CF6F5F7F4F8F4F9F4FE3CF0C94C8
:10581000C12BFA01DC01AA0FBB1F9B01AC01BF57D2
:1058200028F4222733274427507820C0B75190F41A
:10583000AB2F0024469537952795011CA395D2F3ED
:10584000002071F0220F331F441FB395DAF30ED0FE
:105850000C94CA2961307105A0E88A07B94630F472
:105860009B01AC016627772788279078309621F036
:10587000208331834283538308950E94502C0C94DB
:105880008D2B0E947F2B38F00E94862B20F09523D1
:1058900011F00C944F2B0C94552B11240C94C12B0C
:1058A0000E949E2B70F3959FC1F3950F50E0551FFA
:1058B000629FF001729FBB27F00DB11D639FAA2765
:1058C000F00DB11DAA1F649F6627B00DA11D661FB4
:1058D000829F2227B00DA11D621F739FB00DA11DD5
:1058E000621F839FA00D611D221F749F3327A00D8F
:1058F000611D231F849F600D211D822F762F6A2F2B
:1059000011249F5750409AF0F1F088234AF0EE0F8F
:10591000FF1FBB1F661F771F881F91505040A9F7BC
:105920009E3F510580F00C944F2B0C94C12B5F3F90
:10593000E4F3983ED4F3869577956795B795F795F8
:10594000E7959F5FC1F7FE2B880F911D9695879570
:1059500097F908959F930E94C22C0F9007FCEE5F69
:105960000C94EB2C9F3F31F0915020F48795779564
:105970006795B795880F911D9695879597F9089526
:105980000C94552B0E94A62BD8F3E894E0E0BB279B
:105990009F57F0F02AED3FE049EC06C0EE0FBB0F39
:1059A000661F771F881F28F0B23A620773078407C3
:1059B00028F0B25A620B730B840BE3959A9572F739
:1059C000803830F49A95BB0F661F771F881FD2F777
:1059D00090480C94B42CEF93E0FF07C0A2EA2AEDA4
:1059E0003FE049EC5FEB0E94E2290E948D2B0F9073
:1059F000039401FC9058E4EDF0E00C94FF2C9F938D
:105A00008F937F936F93FF93EF939B01AC010E9461
:105A10003D2CEF91FF910E94582B2F913F914F9178
:105A20005F910C943D2CAA1BBB1B51E107C0AA1F20
:105A3000BB1FA617B70710F0A61BB70B881F991F2F
:105A40005A95A9F780959095BC01CD01089597FBD3
:105A5000072E16F4009407D077FD09D00E94132D6D
:105A600007FC05D03EF4909581959F4F0895709561
:105A700061957F4F0895EE0FFF1F0590F491E02D83
:105A80000994FC014150504030F001900616D1F7C6
:105A90003197CF010895882799270895F999FECF66
:105AA00092BD81BDF89A992780B50895A6E1B0E02E
:105AB00044E050E00C94882DA8E1B0E042E050E0D2
:105AC0000C94882D262FF999FECF92BD81BDF89AAE
:105AD000019700B4021639F01FBA20BD0FB6F89432
